{
  "_format": "hh-sol-artifact-1",
  "contractName": "MembershipNFT",
  "sourceName": "contracts/MembershipNFT.sol",
  "abi": [
    {
      "inputs": [],
      "stateMutability": "nonpayable",
      "type": "constructor"
    },
    {
      "inputs": [],
      "name": "AccessControlBadConfirmation",
      "type": "error"
    },
    {
      "inputs": [
        {
          "internalType": "address",
          "name": "account",
          "type": "address"
        },
        {
          "internalType": "bytes32",
          "name": "neededRole",
          "type": "bytes32"
        }
      ],
      "name": "AccessControlUnauthorizedAccount",
      "type": "error"
    },
    {
      "inputs": [
        {
          "internalType": "address",
          "name": "sender",
          "type": "address"
        },
        {
          "internalType": "uint256",
          "name": "tokenId",
          "type": "uint256"
        },
        {
          "internalType": "address",
          "name": "owner",
          "type": "address"
        }
      ],
      "name": "ERC721IncorrectOwner",
      "type": "error"
    },
    {
      "inputs": [
        {
          "internalType": "address",
          "name": "operator",
          "type": "address"
        },
        {
          "internalType": "uint256",
          "name": "tokenId",
          "type": "uint256"
        }
      ],
      "name": "ERC721InsufficientApproval",
      "type": "error"
    },
    {
      "inputs": [
        {
          "internalType": "address",
          "name": "approver",
          "type": "address"
        }
      ],
      "name": "ERC721InvalidApprover",
      "type": "error"
    },
    {
      "inputs": [
        {
          "internalType": "address",
          "name": "operator",
          "type": "address"
        }
      ],
      "name": "ERC721InvalidOperator",
      "type": "error"
    },
    {
      "inputs": [
        {
          "internalType": "address",
          "name": "owner",
          "type": "address"
        }
      ],
      "name": "ERC721InvalidOwner",
      "type": "error"
    },
    {
      "inputs": [
        {
          "internalType": "address",
          "name": "receiver",
          "type": "address"
        }
      ],
      "name": "ERC721InvalidReceiver",
      "type": "error"
    },
    {
      "inputs": [
        {
          "internalType": "address",
          "name": "sender",
          "type": "address"
        }
      ],
      "name": "ERC721InvalidSender",
      "type": "error"
    },
    {
      "inputs": [
        {
          "internalType": "uint256",
          "name": "tokenId",
          "type": "uint256"
        }
      ],
      "name": "ERC721NonexistentToken",
      "type": "error"
    },
    {
      "inputs": [
        {
          "internalType": "address",
          "name": "owner",
          "type": "address"
        }
      ],
      "name": "OwnableInvalidOwner",
      "type": "error"
    },
    {
      "inputs": [
        {
          "internalType": "address",
          "name": "account",
          "type": "address"
        }
      ],
      "name": "OwnableUnauthorizedAccount",
      "type": "error"
    },
    {
      "anonymous": false,
      "inputs": [
        {
          "indexed": true,
          "internalType": "address",
          "name": "owner",
          "type": "address"
        },
        {
          "indexed": true,
          "internalType": "address",
          "name": "approved",
          "type": "address"
        },
        {
          "indexed": true,
          "internalType": "uint256",
          "name": "tokenId",
          "type": "uint256"
        }
      ],
      "name": "Approval",
      "type": "event"
    },
    {
      "anonymous": false,
      "inputs": [
        {
          "indexed": true,
          "internalType": "address",
          "name": "owner",
          "type": "address"
        },
        {
          "indexed": true,
          "internalType": "address",
          "name": "operator",
          "type": "address"
        },
        {
          "indexed": false,
          "internalType": "bool",
          "name": "approved",
          "type": "bool"
        }
      ],
      "name": "ApprovalForAll",
      "type": "event"
    },
    {
      "anonymous": false,
      "inputs": [
        {
          "indexed": false,
          "internalType": "uint256",
          "name": "_fromTokenId",
          "type": "uint256"
        },
        {
          "indexed": false,
          "internalType": "uint256",
          "name": "_toTokenId",
          "type": "uint256"
        }
      ],
      "name": "BatchMetadataUpdate",
      "type": "event"
    },
    {
      "anonymous": false,
      "inputs": [
        {
          "indexed": true,
          "internalType": "address",
          "name": "buyer",
          "type": "address"
        },
        {
          "indexed": true,
          "internalType": "uint256",
          "name": "tokenId",
          "type": "uint256"
        },
        {
          "indexed": false,
          "internalType": "enum MembershipNFT.Tier",
          "name": "tier",
          "type": "uint8"
        },
        {
          "indexed": false,
          "internalType": "uint256",
          "name": "amount",
          "type": "uint256"
        }
      ],
      "name": "MembershipPurchased",
      "type": "event"
    },
    {
      "anonymous": false,
      "inputs": [
        {
          "indexed": true,
          "internalType": "address",
          "name": "owner",
          "type": "address"
        },
        {
          "indexed": true,
          "internalType": "uint256",
          "name": "tokenId",
          "type": "uint256"
        },
        {
          "indexed": false,
          "internalType": "enum MembershipNFT.Tier",
          "name": "oldTier",
          "type": "uint8"
        },
        {
          "indexed": false,
          "internalType": "enum MembershipNFT.Tier",
          "name": "newTier",
          "type": "uint8"
        }
      ],
      "name": "MembershipUpgraded",
      "type": "event"
    },
    {
      "anonymous": false,
      "inputs": [
        {
          "indexed": false,
          "internalType": "uint256",
          "name": "_tokenId",
          "type": "uint256"
        }
      ],
      "name": "MetadataUpdate",
      "type": "event"
    },
    {
      "anonymous": false,
      "inputs": [
        {
          "indexed": true,
          "internalType": "address",
          "name": "previousOwner",
          "type": "address"
        },
        {
          "indexed": true,
          "internalType": "address",
          "name": "newOwner",
          "type": "address"
        }
      ],
      "name": "OwnershipTransferred",
      "type": "event"
    },
    {
      "anonymous": false,
      "inputs": [
        {
          "indexed": true,
          "internalType": "bytes32",
          "name": "role",
          "type": "bytes32"
        },
        {
          "indexed": true,
          "internalType": "bytes32",
          "name": "previousAdminRole",
          "type": "bytes32"
        },
        {
          "indexed": true,
          "internalType": "bytes32",
          "name": "newAdminRole",
          "type": "bytes32"
        }
      ],
      "name": "RoleAdminChanged",
      "type": "event"
    },
    {
      "anonymous": false,
      "inputs": [
        {
          "indexed": true,
          "internalType": "bytes32",
          "name": "role",
          "type": "bytes32"
        },
        {
          "indexed": true,
          "internalType": "address",
          "name": "account",
          "type": "address"
        },
        {
          "indexed": true,
          "internalType": "address",
          "name": "sender",
          "type": "address"
        }
      ],
      "name": "RoleGranted",
      "type": "event"
    },
    {
      "anonymous": false,
      "inputs": [
        {
          "indexed": true,
          "internalType": "bytes32",
          "name": "role",
          "type": "bytes32"
        },
        {
          "indexed": true,
          "internalType": "address",
          "name": "account",
          "type": "address"
        },
        {
          "indexed": true,
          "internalType": "address",
          "name": "sender",
          "type": "address"
        }
      ],
      "name": "RoleRevoked",
      "type": "event"
    },
    {
      "anonymous": false,
      "inputs": [
        {
          "indexed": true,
          "internalType": "address",
          "name": "from",
          "type": "address"
        },
        {
          "indexed": true,
          "internalType": "address",
          "name": "to",
          "type": "address"
        },
        {
          "indexed": true,
          "internalType": "uint256",
          "name": "tokenId",
          "type": "uint256"
        }
      ],
      "name": "Transfer",
      "type": "event"
    },
    {
      "inputs": [],
      "name": "DEFAULT_ADMIN_ROLE",
      "outputs": [
        {
          "internalType": "bytes32",
          "name": "",
          "type": "bytes32"
        }
      ],
      "stateMutability": "view",
      "type": "function"
    },
    {
      "inputs": [],
      "name": "GOLD_PRICE",
      "outputs": [
        {
          "internalType": "uint256",
          "name": "",
          "type": "uint256"
        }
      ],
      "stateMutability": "view",
      "type": "function"
    },
    {
      "inputs": [],
      "name": "MINTER_ROLE",
      "outputs": [
        {
          "internalType": "bytes32",
          "name": "",
          "type": "bytes32"
        }
      ],
      "stateMutability": "view",
      "type": "function"
    },
    {
      "inputs": [],
      "name": "PLATINUM_PRICE",
      "outputs": [
        {
          "internalType": "uint256",
          "name": "",
          "type": "uint256"
        }
      ],
      "stateMutability": "view",
      "type": "function"
    },
    {
      "inputs": [],
      "name": "SILVER_PRICE",
      "outputs": [
        {
          "internalType": "uint256",
          "name": "",
          "type": "uint256"
        }
      ],
      "stateMutability": "view",
      "type": "function"
    },
    {
      "inputs": [
        {
          "internalType": "address",
          "name": "to",
          "type": "address"
        },
        {
          "internalType": "uint256",
          "name": "tokenId",
          "type": "uint256"
        }
      ],
      "name": "approve",
      "outputs": [],
      "stateMutability": "nonpayable",
      "type": "function"
    },
    {
      "inputs": [
        {
          "internalType": "address",
          "name": "owner",
          "type": "address"
        }
      ],
      "name": "balanceOf",
      "outputs": [
        {
          "internalType": "uint256",
          "name": "",
          "type": "uint256"
        }
      ],
      "stateMutability": "view",
      "type": "function"
    },
    {
      "inputs": [
        {
          "internalType": "uint256",
          "name": "tokenId",
          "type": "uint256"
        }
      ],
      "name": "getApproved",
      "outputs": [
        {
          "internalType": "address",
          "name": "",
          "type": "address"
        }
      ],
      "stateMutability": "view",
      "type": "function"
    },
    {
      "inputs": [
        {
          "internalType": "bytes32",
          "name": "role",
          "type": "bytes32"
        }
      ],
      "name": "getRoleAdmin",
      "outputs": [
        {
          "internalType": "bytes32",
          "name": "",
          "type": "bytes32"
        }
      ],
      "stateMutability": "view",
      "type": "function"
    },
    {
      "inputs": [
        {
          "internalType": "enum MembershipNFT.Tier",
          "name": "tier",
          "type": "uint8"
        }
      ],
      "name": "getTierPrice",
      "outputs": [
        {
          "internalType": "uint256",
          "name": "",
          "type": "uint256"
        }
      ],
      "stateMutability": "pure",
      "type": "function"
    },
    {
      "inputs": [
        {
          "internalType": "bytes32",
          "name": "role",
          "type": "bytes32"
        },
        {
          "internalType": "address",
          "name": "account",
          "type": "address"
        }
      ],
      "name": "grantRole",
      "outputs": [],
      "stateMutability": "nonpayable",
      "type": "function"
    },
    {
      "inputs": [
        {
          "internalType": "bytes32",
          "name": "role",
          "type": "bytes32"
        },
        {
          "internalType": "address",
          "name": "account",
          "type": "address"
        }
      ],
      "name": "hasRole",
      "outputs": [
        {
          "internalType": "bool",
          "name": "",
          "type": "bool"
        }
      ],
      "stateMutability": "view",
      "type": "function"
    },
    {
      "inputs": [
        {
          "internalType": "address",
          "name": "owner",
          "type": "address"
        },
        {
          "internalType": "address",
          "name": "operator",
          "type": "address"
        }
      ],
      "name": "isApprovedForAll",
      "outputs": [
        {
          "internalType": "bool",
          "name": "",
          "type": "bool"
        }
      ],
      "stateMutability": "view",
      "type": "function"
    },
    {
      "inputs": [
        {
          "internalType": "address",
          "name": "to",
          "type": "address"
        },
        {
          "internalType": "uint8",
          "name": "tier",
          "type": "uint8"
        },
        {
          "internalType": "string",
          "name": "uri",
          "type": "string"
        }
      ],
      "name": "mintMembership",
      "outputs": [],
      "stateMutability": "nonpayable",
      "type": "function"
    },
    {
      "inputs": [],
      "name": "name",
      "outputs": [
        {
          "internalType": "string",
          "name": "",
          "type": "string"
        }
      ],
      "stateMutability": "view",
      "type": "function"
    },
    {
      "inputs": [],
      "name": "owner",
      "outputs": [
        {
          "internalType": "address",
          "name": "",
          "type": "address"
        }
      ],
      "stateMutability": "view",
      "type": "function"
    },
    {
      "inputs": [
        {
          "internalType": "uint256",
          "name": "tokenId",
          "type": "uint256"
        }
      ],
      "name": "ownerOf",
      "outputs": [
        {
          "internalType": "address",
          "name": "",
          "type": "address"
        }
      ],
      "stateMutability": "view",
      "type": "function"
    },
    {
      "inputs": [],
      "name": "renounceOwnership",
      "outputs": [],
      "stateMutability": "nonpayable",
      "type": "function"
    },
    {
      "inputs": [
        {
          "internalType": "bytes32",
          "name": "role",
          "type": "bytes32"
        },
        {
          "internalType": "address",
          "name": "callerConfirmation",
          "type": "address"
        }
      ],
      "name": "renounceRole",
      "outputs": [],
      "stateMutability": "nonpayable",
      "type": "function"
    },
    {
      "inputs": [
        {
          "internalType": "bytes32",
          "name": "role",
          "type": "bytes32"
        },
        {
          "internalType": "address",
          "name": "account",
          "type": "address"
        }
      ],
      "name": "revokeRole",
      "outputs": [],
      "stateMutability": "nonpayable",
      "type": "function"
    },
    {
      "inputs": [
        {
          "internalType": "address",
          "name": "from",
          "type": "address"
        },
        {
          "internalType": "address",
          "name": "to",
          "type": "address"
        },
        {
          "internalType": "uint256",
          "name": "tokenId",
          "type": "uint256"
        }
      ],
      "name": "safeTransferFrom",
      "outputs": [],
      "stateMutability": "nonpayable",
      "type": "function"
    },
    {
      "inputs": [
        {
          "internalType": "address",
          "name": "from",
          "type": "address"
        },
        {
          "internalType": "address",
          "name": "to",
          "type": "address"
        },
        {
          "internalType": "uint256",
          "name": "tokenId",
          "type": "uint256"
        },
        {
          "internalType": "bytes",
          "name": "data",
          "type": "bytes"
        }
      ],
      "name": "safeTransferFrom",
      "outputs": [],
      "stateMutability": "nonpayable",
      "type": "function"
    },
    {
      "inputs": [
        {
          "internalType": "address",
          "name": "operator",
          "type": "address"
        },
        {
          "internalType": "bool",
          "name": "approved",
          "type": "bool"
        }
      ],
      "name": "setApprovalForAll",
      "outputs": [],
      "stateMutability": "nonpayable",
      "type": "function"
    },
    {
      "inputs": [
        {
          "internalType": "bytes4",
          "name": "interfaceId",
          "type": "bytes4"
        }
      ],
      "name": "supportsInterface",
      "outputs": [
        {
          "internalType": "bool",
          "name": "",
          "type": "bool"
        }
      ],
      "stateMutability": "view",
      "type": "function"
    },
    {
      "inputs": [],
      "name": "symbol",
      "outputs": [
        {
          "internalType": "string",
          "name": "",
          "type": "string"
        }
      ],
      "stateMutability": "view",
      "type": "function"
    },
    {
      "inputs": [
        {
          "internalType": "uint256",
          "name": "",
          "type": "uint256"
        }
      ],
      "name": "tokenTier",
      "outputs": [
        {
          "internalType": "enum MembershipNFT.Tier",
          "name": "",
          "type": "uint8"
        }
      ],
      "stateMutability": "view",
      "type": "function"
    },
    {
      "inputs": [
        {
          "internalType": "uint256",
          "name": "tokenId",
          "type": "uint256"
        }
      ],
      "name": "tokenURI",
      "outputs": [
        {
          "internalType": "string",
          "name": "",
          "type": "string"
        }
      ],
      "stateMutability": "view",
      "type": "function"
    },
    {
      "inputs": [
        {
          "internalType": "address",
          "name": "from",
          "type": "address"
        },
        {
          "internalType": "address",
          "name": "to",
          "type": "address"
        },
        {
          "internalType": "uint256",
          "name": "tokenId",
          "type": "uint256"
        }
      ],
      "name": "transferFrom",
      "outputs": [],
      "stateMutability": "nonpayable",
      "type": "function"
    },
    {
      "inputs": [
        {
          "internalType": "address",
          "name": "newOwner",
          "type": "address"
        }
      ],
      "name": "transferOwnership",
      "outputs": [],
      "stateMutability": "nonpayable",
      "type": "function"
    },
    {
      "inputs": [
        {
          "internalType": "uint256",
          "name": "tokenId",
          "type": "uint256"
        },
        {
          "internalType": "uint8",
          "name": "newTier",
          "type": "uint8"
        }
      ],
      "name": "upgradeMembership",
      "outputs": [],
      "stateMutability": "nonpayable",
      "type": "function"
    }
  ],
  "bytecode": "0x60806040523480156200001157600080fd5b50336040518060400160405280601481526020017f4d69652059616d696e204d656d62657273686970000000000000000000000000815250604051806040016040528060038152602001624d594d60e81b8152508160009081620000769190620002ae565b506001620000858282620002ae565b5050506001600160a01b038116620000b757604051631e4fbdf760e01b81526000600482015260240160405180910390fd5b620000c28162000104565b50620000d060003362000156565b50620000fd7f9f2df0fed2c77648de5860a4cc508cd0818c85b8b8a1ab4ceeef8d981c8956a63362000156565b506200037a565b600780546001600160a01b038381166001600160a01b0319831681179093556040519116919082907f8be0079c531659141344cd1fd0a4f28419497f9722a3daafe3b4186f6b6457e090600090a35050565b60008281526008602090815260408083206001600160a01b038516845290915281205460ff16620001ff5760008381526008602090815260408083206001600160a01b03861684529091529020805460ff19166001179055620001b63390565b6001600160a01b0316826001600160a01b0316847f2f8788117e7eff1d82e926ec794901d17c78024a50270940304540a733656f0d60405160405180910390a450600162000203565b5060005b92915050565b634e487b7160e01b600052604160045260246000fd5b600181811c908216806200023457607f821691505b6020821081036200025557634e487b7160e01b600052602260045260246000fd5b50919050565b601f821115620002a957600081815260208120601f850160051c81016020861015620002845750805b601f850160051c820191505b81811015620002a55782815560010162000290565b5050505b505050565b81516001600160401b03811115620002ca57620002ca62000209565b620002e281620002db84546200021f565b846200025b565b602080601f8311600181146200031a5760008415620003015750858301515b600019600386901b1c1916600185901b178555620002a5565b600085815260208120601f198616915b828110156200034b578886015182559484019460019091019084016200032a565b50858210156200036a5787850151600019600388901b60f8161c191681555b5050505050600190811b01905550565b611c1e806200038a6000396000f3fe608060405234801561001057600080fd5b50600436106101da5760003560e01c806370a0823111610104578063a217fddf116100a2578063d539139311610071578063d53913931461040d578063d547741f14610434578063e985e9c514610447578063f2fde38b1461045a57600080fd5b8063a217fddf146103cc578063a22cb465146103d4578063b88d4fde146103e7578063c87b56dd146103fa57600080fd5b80638281b3ac116100de5780638281b3ac146103905780638da5cb5b146103a057806391d14854146103b157806395d89b41146103c457600080fd5b806370a0823114610362578063715018a61461037557806375aca2e91461037d57600080fd5b80632f2ff15d1161017c578063570153ed1161014b578063570153ed146102ff5780635dbc6d6c1461030f5780636352211e1461031f578063649e705f1461033257600080fd5b80632f2ff15d146102b357806336568abe146102c657806342842e0e146102d95780635586402d146102ec57600080fd5b8063095ea7b3116101b8578063095ea7b3146102475780631092fead1461025c57806323b872dd1461026f578063248a9ca31461028257600080fd5b806301ffc9a7146101df57806306fdde0314610207578063081812fc1461021c575b600080fd5b6101f26101ed3660046115fa565b61046d565b60405190151581526020015b60405180910390f35b61020f61047e565b6040516101fe9190611667565b61022f61022a36600461167a565b610510565b6040516001600160a01b0390911681526020016101fe565b61025a6102553660046116af565b610539565b005b61025a61026a3660046116ea565b610548565b61025a61027d366004611778565b61061d565b6102a561029036600461167a565b60009081526008602052604090206001015490565b6040519081526020016101fe565b61025a6102c13660046117b4565b6106ad565b61025a6102d43660046117b4565b6106d2565b61025a6102e7366004611778565b61070a565b6102a56102fa3660046117e0565b610725565b6102a5681b1ae4d6e2ef50000081565b6102a568056bc75e2d6310000081565b61022f61032d36600461167a565b6107d8565b61035561034036600461167a565b600a6020526000908152604090205460ff1681565b6040516101fe9190611839565b6102a5610370366004611847565b6107e3565b61025a61082b565b61025a61038b366004611862565b61083f565b6102a5680d8d726b7177a8000081565b6007546001600160a01b031661022f565b6101f26103bf3660046117b4565b6109e1565b61020f610a0c565b6102a5600081565b61025a6103e2366004611885565b610a1b565b61025a6103f53660046118d7565b610a26565b61020f61040836600461167a565b610a3e565b6102a57f9f2df0fed2c77648de5860a4cc508cd0818c85b8b8a1ab4ceeef8d981c8956a681565b61025a6104423660046117b4565b610a49565b6101f26104553660046119b3565b610a6e565b61025a610468366004611847565b610a9c565b600061047882610ada565b92915050565b60606000805461048d906119dd565b80601f01602080910402602001604051908101604052809291908181526020018280546104b9906119dd565b80156105065780601f106104db57610100808354040283529160200191610506565b820191906000526020600020905b8154815290600101906020018083116104e957829003601f168201915b5050505050905090565b600061051b82610aff565b506000828152600460205260409020546001600160a01b0316610478565b610544828233610b38565b5050565b7f9f2df0fed2c77648de5860a4cc508cd0818c85b8b8a1ab4ceeef8d981c8956a661057281610b45565b60098054908190600061058483611a17565b91905055506105938682610b4f565b8460ff1660028111156105a8576105a8611801565b6000828152600a60205260409020805460ff191660018360028111156105d0576105d0611801565b02179055506106158185858080601f016020809104026020016040519081016040528093929190818152602001838380828437600092019190915250610b6992505050565b505050505050565b6001600160a01b03821661064c57604051633250574960e11b8152600060048201526024015b60405180910390fd5b6000610659838333610bb9565b9050836001600160a01b0316816001600160a01b0316146106a7576040516364283d7b60e01b81526001600160a01b0380861660048301526024820184905282166044820152606401610643565b50505050565b6000828152600860205260409020600101546106c881610b45565b6106a78383610cb4565b6001600160a01b03811633146106fb5760405163334bd91960e11b815260040160405180910390fd5b6107058282610d48565b505050565b61070583838360405180602001604052806000815250610a26565b60008082600281111561073a5761073a611801565b0361074f575068056bc75e2d63100000919050565b600182600281111561076357610763611801565b036107785750680d8d726b7177a80000919050565b600282600281111561078c5761078c611801565b036107a15750681b1ae4d6e2ef500000919050565b60405162461bcd60e51b815260206004820152600c60248201526b24b73b30b634b2103a34b2b960a11b6044820152606401610643565b600061047882610aff565b60006001600160a01b03821661080f576040516322718ad960e21b815260006004820152602401610643565b506001600160a01b031660009081526003602052604090205490565b610833610db5565b61083d6000610de2565b565b7f9f2df0fed2c77648de5860a4cc508cd0818c85b8b8a1ab4ceeef8d981c8956a661086981610b45565b6000610874846107d8565b6001600160a01b0316036108c15760405162461bcd60e51b8152602060048201526014602482015273151bdad95b88191bd95cc81b9bdd08195e1a5cdd60621b6044820152606401610643565b6000838152600a602052604090205460ff168060028111156108e5576108e5611801565b60ff168360ff16116109395760405162461bcd60e51b815260206004820152601760248201527f4e65772074696572206d757374206265206869676865720000000000000000006044820152606401610643565b8260ff16600281111561094e5761094e611801565b6000858152600a60205260409020805460ff1916600183600281111561097657610976611801565b021790555083610985856107d8565b6001600160a01b03167f2d3a0d643826fdc9f11a0ff0e3140800ce61aaba0525fa0fa59af6d445a2fc89838660ff1660028111156109c5576109c5611801565b6040516109d3929190611a3e565b60405180910390a350505050565b60009182526008602090815260408084206001600160a01b0393909316845291905290205460ff1690565b60606001805461048d906119dd565b610544338383610e34565b610a3184848461061d565b6106a73385858585610ed3565b606061047882610ffc565b600082815260086020526040902060010154610a6481610b45565b6106a78383610d48565b6001600160a01b03918216600090815260056020908152604080832093909416825291909152205460ff1690565b610aa4610db5565b6001600160a01b038116610ace57604051631e4fbdf760e01b815260006004820152602401610643565b610ad781610de2565b50565b60006001600160e01b03198216637965db0b60e01b148061047857506104788261110d565b6000818152600260205260408120546001600160a01b03168061047857604051637e27328960e01b815260048101849052602401610643565b6107058383836001611132565b610ad78133611238565b610544828260405180602001604052806000815250611271565b6000828152600660205260409020610b818282611a9f565b506040518281527ff8e1a15aba9398e019f0b49df1a4fde98ee17ae345cb5f6b5e2c27f5033e8ce79060200160405180910390a15050565b6000828152600260205260408120546001600160a01b0390811690831615610be657610be6818486611289565b6001600160a01b03811615610c2457610c03600085600080611132565b6001600160a01b038116600090815260036020526040902080546000190190555b6001600160a01b03851615610c53576001600160a01b0385166000908152600360205260409020805460010190555b60008481526002602052604080822080546001600160a01b0319166001600160a01b0389811691821790925591518793918516917fddf252ad1be2c89b69c2b068fc378daa952ba7f163c4a11628f55a4df523b3ef91a490505b9392505050565b6000610cc083836109e1565b610d405760008381526008602090815260408083206001600160a01b03861684529091529020805460ff19166001179055610cf83390565b6001600160a01b0316826001600160a01b0316847f2f8788117e7eff1d82e926ec794901d17c78024a50270940304540a733656f0d60405160405180910390a4506001610478565b506000610478565b6000610d5483836109e1565b15610d405760008381526008602090815260408083206001600160a01b0386168085529252808320805460ff1916905551339286917ff6391f5c32d9c69d2a47ea670b442974b53935d1edc7fd64eb21e047a839171b9190a4506001610478565b6007546001600160a01b0316331461083d5760405163118cdaa760e01b8152336004820152602401610643565b600780546001600160a01b038381166001600160a01b0319831681179093556040519116919082907f8be0079c531659141344cd1fd0a4f28419497f9722a3daafe3b4186f6b6457e090600090a35050565b6001600160a01b038216610e6657604051630b61174360e31b81526001600160a01b0383166004820152602401610643565b6001600160a01b03838116600081815260056020908152604080832094871680845294825291829020805460ff191686151590811790915591519182527f17307eab39ab6107e8899845ad3d59bd9653f200f220920489ca2b5937696c31910160405180910390a3505050565b6001600160a01b0383163b15610ff557604051630a85bd0160e11b81526001600160a01b0384169063150b7a0290610f15908890889087908790600401611b5f565b6020604051808303816000875af1925050508015610f50575060408051601f3d908101601f19168201909252610f4d91810190611b9c565b60015b610fb9573d808015610f7e576040519150601f19603f3d011682016040523d82523d6000602084013e610f83565b606091505b508051600003610fb157604051633250574960e11b81526001600160a01b0385166004820152602401610643565b805160208201fd5b6001600160e01b03198116630a85bd0160e11b1461061557604051633250574960e11b81526001600160a01b0385166004820152602401610643565b5050505050565b606061100782610aff565b5060008281526006602052604081208054611021906119dd565b80601f016020809104026020016040519081016040528092919081815260200182805461104d906119dd565b801561109a5780601f1061106f5761010080835404028352916020019161109a565b820191906000526020600020905b81548152906001019060200180831161107d57829003601f168201915b5050505050905060006110b860408051602081019091526000815290565b905080516000036110ca575092915050565b8151156110fc5780826040516020016110e4929190611bb9565b60405160208183030381529060405292505050919050565b611105846112ed565b949350505050565b60006001600160e01b03198216632483248360e11b1480610478575061047882611361565b808061114657506001600160a01b03821615155b1561120857600061115684610aff565b90506001600160a01b038316158015906111825750826001600160a01b0316816001600160a01b031614155b801561119557506111938184610a6e565b155b156111be5760405163a9fbf51f60e01b81526001600160a01b0384166004820152602401610643565b81156112065783856001600160a01b0316826001600160a01b03167f8c5be1e5ebec7d5bd14f71427d1e84f3dd0314c0f7b2291e5b200ac8c7c3b92560405160405180910390a45b505b5050600090815260046020526040902080546001600160a01b0319166001600160a01b0392909216919091179055565b61124282826109e1565b6105445760405163e2517d3f60e01b81526001600160a01b038216600482015260248101839052604401610643565b61127b83836113b1565b610705336000858585610ed3565b611294838383611416565b610705576001600160a01b0383166112c257604051637e27328960e01b815260048101829052602401610643565b60405163177e802f60e01b81526001600160a01b038316600482015260248101829052604401610643565b60606112f882610aff565b50600061131060408051602081019091526000815290565b905060008151116113305760405180602001604052806000815250610cad565b8061133a84611479565b60405160200161134b929190611bb9565b6040516020818303038152906040529392505050565b60006001600160e01b031982166380ac58cd60e01b148061139257506001600160e01b03198216635b5e139f60e01b145b8061047857506301ffc9a760e01b6001600160e01b0319831614610478565b6001600160a01b0382166113db57604051633250574960e11b815260006004820152602401610643565b60006113e983836000610bb9565b90506001600160a01b03811615610705576040516339e3563760e11b815260006004820152602401610643565b60006001600160a01b038316158015906111055750826001600160a01b0316846001600160a01b0316148061145057506114508484610a6e565b806111055750506000908152600460205260409020546001600160a01b03908116911614919050565b606060006114868361150c565b600101905060008167ffffffffffffffff8111156114a6576114a66118c1565b6040519080825280601f01601f1916602001820160405280156114d0576020820181803683370190505b5090508181016020015b600019016f181899199a1a9b1b9c1cb0b131b232b360811b600a86061a8153600a85049450846114da57509392505050565b60008072184f03e93ff9f4daa797ed6e38ed64bf6a1f0160401b831061154b5772184f03e93ff9f4daa797ed6e38ed64bf6a1f0160401b830492506040015b6d04ee2d6d415b85acef81000000008310611577576d04ee2d6d415b85acef8100000000830492506020015b662386f26fc10000831061159557662386f26fc10000830492506010015b6305f5e10083106115ad576305f5e100830492506008015b61271083106115c157612710830492506004015b606483106115d3576064830492506002015b600a83106104785760010192915050565b6001600160e01b031981168114610ad757600080fd5b60006020828403121561160c57600080fd5b8135610cad816115e4565b60005b8381101561163257818101518382015260200161161a565b50506000910152565b60008151808452611653816020860160208601611617565b601f01601f19169290920160200192915050565b602081526000610cad602083018461163b565b60006020828403121561168c57600080fd5b5035919050565b80356001600160a01b03811681146116aa57600080fd5b919050565b600080604083850312156116c257600080fd5b6116cb83611693565b946020939093013593505050565b803560ff811681146116aa57600080fd5b6000806000806060858703121561170057600080fd5b61170985611693565b9350611717602086016116d9565b9250604085013567ffffffffffffffff8082111561173457600080fd5b818701915087601f83011261174857600080fd5b81358181111561175757600080fd5b88602082850101111561176957600080fd5b95989497505060200194505050565b60008060006060848603121561178d57600080fd5b61179684611693565b92506117a460208501611693565b9150604084013590509250925092565b600080604083850312156117c757600080fd5b823591506117d760208401611693565b90509250929050565b6000602082840312156117f257600080fd5b813560038110610cad57600080fd5b634e487b7160e01b600052602160045260246000fd5b6003811061183557634e487b7160e01b600052602160045260246000fd5b9052565b602081016104788284611817565b60006020828403121561185957600080fd5b610cad82611693565b6000806040838503121561187557600080fd5b823591506117d7602084016116d9565b6000806040838503121561189857600080fd5b6118a183611693565b9150602083013580151581146118b657600080fd5b809150509250929050565b634e487b7160e01b600052604160045260246000fd5b600080600080608085870312156118ed57600080fd5b6118f685611693565b935061190460208601611693565b925060408501359150606085013567ffffffffffffffff8082111561192857600080fd5b818701915087601f83011261193c57600080fd5b81358181111561194e5761194e6118c1565b604051601f8201601f19908116603f01168101908382118183101715611976576119766118c1565b816040528281528a602084870101111561198f57600080fd5b82602086016020830137600060208483010152809550505050505092959194509250565b600080604083850312156119c657600080fd5b6119cf83611693565b91506117d760208401611693565b600181811c908216806119f157607f821691505b602082108103611a1157634e487b7160e01b600052602260045260246000fd5b50919050565b600060018201611a3757634e487b7160e01b600052601160045260246000fd5b5060010190565b60408101611a4c8285611817565b610cad6020830184611817565b601f82111561070557600081815260208120601f850160051c81016020861015611a805750805b601f850160051c820191505b8181101561061557828155600101611a8c565b815167ffffffffffffffff811115611ab957611ab96118c1565b611acd81611ac784546119dd565b84611a59565b602080601f831160018114611b025760008415611aea5750858301515b600019600386901b1c1916600185901b178555610615565b600085815260208120601f198616915b82811015611b3157888601518255948401946001909101908401611b12565b5085821015611b4f5787850151600019600388901b60f8161c191681555b5050505050600190811b01905550565b6001600160a01b0385811682528416602082015260408101839052608060608201819052600090611b929083018461163b565b9695505050505050565b600060208284031215611bae57600080fd5b8151610cad816115e4565b60008351611bcb818460208801611617565b835190830190611bdf818360208801611617565b0194935050505056fea2646970667358221220b9930ffeb86672a3721742ff533e4954fe0dcfde660760c2f71ec3a2bae29be064736f6c63430008140033",
  "linkReferences": {},
  "deployedLinkReferences": {}
}