{
  "_format": "hh-sol-artifact-1",
  "contractName": "MembershipNFT",
  "sourceName": "contracts/MembershipNFT.sol",
  "abi": [
    {
      "inputs": [],
      "stateMutability": "nonpayable",
      "type": "constructor"
    },
    {
      "inputs": [],
      "name": "AccessControlBadConfirmation",
      "type": "error"
    },
    {
      "inputs": [
        {
          "internalType": "address",
          "name": "account",
          "type": "address"
        },
        {
          "internalType": "bytes32",
          "name": "neededRole",
          "type": "bytes32"
        }
      ],
      "name": "AccessControlUnauthorizedAccount",
      "type": "error"
    },
    {
      "inputs": [
        {
          "internalType": "address",
          "name": "sender",
          "type": "address"
        },
        {
          "internalType": "uint256",
          "name": "tokenId",
          "type": "uint256"
        },
        {
          "internalType": "address",
          "name": "owner",
          "type": "address"
        }
      ],
      "name": "ERC721IncorrectOwner",
      "type": "error"
    },
    {
      "inputs": [
        {
          "internalType": "address",
          "name": "operator",
          "type": "address"
        },
        {
          "internalType": "uint256",
          "name": "tokenId",
          "type": "uint256"
        }
      ],
      "name": "ERC721InsufficientApproval",
      "type": "error"
    },
    {
      "inputs": [
        {
          "internalType": "address",
          "name": "approver",
          "type": "address"
        }
      ],
      "name": "ERC721InvalidApprover",
      "type": "error"
    },
    {
      "inputs": [
        {
          "internalType": "address",
          "name": "operator",
          "type": "address"
        }
      ],
      "name": "ERC721InvalidOperator",
      "type": "error"
    },
    {
      "inputs": [
        {
          "internalType": "address",
          "name": "owner",
          "type": "address"
        }
      ],
      "name": "ERC721InvalidOwner",
      "type": "error"
    },
    {
      "inputs": [
        {
          "internalType": "address",
          "name": "receiver",
          "type": "address"
        }
      ],
      "name": "ERC721InvalidReceiver",
      "type": "error"
    },
    {
      "inputs": [
        {
          "internalType": "address",
          "name": "sender",
          "type": "address"
        }
      ],
      "name": "ERC721InvalidSender",
      "type": "error"
    },
    {
      "inputs": [
        {
          "internalType": "uint256",
          "name": "tokenId",
          "type": "uint256"
        }
      ],
      "name": "ERC721NonexistentToken",
      "type": "error"
    },
    {
      "inputs": [
        {
          "internalType": "address",
          "name": "owner",
          "type": "address"
        }
      ],
      "name": "OwnableInvalidOwner",
      "type": "error"
    },
    {
      "inputs": [
        {
          "internalType": "address",
          "name": "account",
          "type": "address"
        }
      ],
      "name": "OwnableUnauthorizedAccount",
      "type": "error"
    },
    {
      "anonymous": false,
      "inputs": [
        {
          "indexed": true,
          "internalType": "address",
          "name": "owner",
          "type": "address"
        },
        {
          "indexed": true,
          "internalType": "address",
          "name": "approved",
          "type": "address"
        },
        {
          "indexed": true,
          "internalType": "uint256",
          "name": "tokenId",
          "type": "uint256"
        }
      ],
      "name": "Approval",
      "type": "event"
    },
    {
      "anonymous": false,
      "inputs": [
        {
          "indexed": true,
          "internalType": "address",
          "name": "owner",
          "type": "address"
        },
        {
          "indexed": true,
          "internalType": "address",
          "name": "operator",
          "type": "address"
        },
        {
          "indexed": false,
          "internalType": "bool",
          "name": "approved",
          "type": "bool"
        }
      ],
      "name": "ApprovalForAll",
      "type": "event"
    },
    {
      "anonymous": false,
      "inputs": [
        {
          "indexed": false,
          "internalType": "uint256",
          "name": "_fromTokenId",
          "type": "uint256"
        },
        {
          "indexed": false,
          "internalType": "uint256",
          "name": "_toTokenId",
          "type": "uint256"
        }
      ],
      "name": "BatchMetadataUpdate",
      "type": "event"
    },
    {
      "anonymous": false,
      "inputs": [
        {
          "indexed": true,
          "internalType": "address",
          "name": "buyer",
          "type": "address"
        },
        {
          "indexed": true,
          "internalType": "uint256",
          "name": "tokenId",
          "type": "uint256"
        },
        {
          "indexed": false,
          "internalType": "enum MembershipNFT.Tier",
          "name": "tier",
          "type": "uint8"
        },
        {
          "indexed": false,
          "internalType": "uint256",
          "name": "amount",
          "type": "uint256"
        }
      ],
      "name": "MembershipPurchased",
      "type": "event"
    },
    {
      "anonymous": false,
      "inputs": [
        {
          "indexed": true,
          "internalType": "address",
          "name": "owner",
          "type": "address"
        },
        {
          "indexed": true,
          "internalType": "uint256",
          "name": "tokenId",
          "type": "uint256"
        },
        {
          "indexed": false,
          "internalType": "enum MembershipNFT.Tier",
          "name": "oldTier",
          "type": "uint8"
        },
        {
          "indexed": false,
          "internalType": "enum MembershipNFT.Tier",
          "name": "newTier",
          "type": "uint8"
        }
      ],
      "name": "MembershipUpgraded",
      "type": "event"
    },
    {
      "anonymous": false,
      "inputs": [
        {
          "indexed": false,
          "internalType": "uint256",
          "name": "_tokenId",
          "type": "uint256"
        }
      ],
      "name": "MetadataUpdate",
      "type": "event"
    },
    {
      "anonymous": false,
      "inputs": [
        {
          "indexed": true,
          "internalType": "address",
          "name": "previousOwner",
          "type": "address"
        },
        {
          "indexed": true,
          "internalType": "address",
          "name": "newOwner",
          "type": "address"
        }
      ],
      "name": "OwnershipTransferred",
      "type": "event"
    },
    {
      "anonymous": false,
      "inputs": [
        {
          "indexed": true,
          "internalType": "bytes32",
          "name": "role",
          "type": "bytes32"
        },
        {
          "indexed": true,
          "internalType": "bytes32",
          "name": "previousAdminRole",
          "type": "bytes32"
        },
        {
          "indexed": true,
          "internalType": "bytes32",
          "name": "newAdminRole",
          "type": "bytes32"
        }
      ],
      "name": "RoleAdminChanged",
      "type": "event"
    },
    {
      "anonymous": false,
      "inputs": [
        {
          "indexed": true,
          "internalType": "bytes32",
          "name": "role",
          "type": "bytes32"
        },
        {
          "indexed": true,
          "internalType": "address",
          "name": "account",
          "type": "address"
        },
        {
          "indexed": true,
          "internalType": "address",
          "name": "sender",
          "type": "address"
        }
      ],
      "name": "RoleGranted",
      "type": "event"
    },
    {
      "anonymous": false,
      "inputs": [
        {
          "indexed": true,
          "internalType": "bytes32",
          "name": "role",
          "type": "bytes32"
        },
        {
          "indexed": true,
          "internalType": "address",
          "name": "account",
          "type": "address"
        },
        {
          "indexed": true,
          "internalType": "address",
          "name": "sender",
          "type": "address"
        }
      ],
      "name": "RoleRevoked",
      "type": "event"
    },
    {
      "anonymous": false,
      "inputs": [
        {
          "indexed": true,
          "internalType": "address",
          "name": "from",
          "type": "address"
        },
        {
          "indexed": true,
          "internalType": "address",
          "name": "to",
          "type": "address"
        },
        {
          "indexed": true,
          "internalType": "uint256",
          "name": "tokenId",
          "type": "uint256"
        }
      ],
      "name": "Transfer",
      "type": "event"
    },
    {
      "inputs": [],
      "name": "DEFAULT_ADMIN_ROLE",
      "outputs": [
        {
          "internalType": "bytes32",
          "name": "",
          "type": "bytes32"
        }
      ],
      "stateMutability": "view",
      "type": "function"
    },
    {
      "inputs": [],
      "name": "GOLD_PRICE",
      "outputs": [
        {
          "internalType": "uint256",
          "name": "",
          "type": "uint256"
        }
      ],
      "stateMutability": "view",
      "type": "function"
    },
    {
      "inputs": [],
      "name": "MINTER_ROLE",
      "outputs": [
        {
          "internalType": "bytes32",
          "name": "",
          "type": "bytes32"
        }
      ],
      "stateMutability": "view",
      "type": "function"
    },
    {
      "inputs": [],
      "name": "PLATINUM_PRICE",
      "outputs": [
        {
          "internalType": "uint256",
          "name": "",
          "type": "uint256"
        }
      ],
      "stateMutability": "view",
      "type": "function"
    },
    {
      "inputs": [],
      "name": "SILVER_PRICE",
      "outputs": [
        {
          "internalType": "uint256",
          "name": "",
          "type": "uint256"
        }
      ],
      "stateMutability": "view",
      "type": "function"
    },
    {
      "inputs": [
        {
          "internalType": "address",
          "name": "to",
          "type": "address"
        },
        {
          "internalType": "uint256",
          "name": "tokenId",
          "type": "uint256"
        }
      ],
      "name": "approve",
      "outputs": [],
      "stateMutability": "nonpayable",
      "type": "function"
    },
    {
      "inputs": [
        {
          "internalType": "address",
          "name": "owner",
          "type": "address"
        }
      ],
      "name": "balanceOf",
      "outputs": [
        {
          "internalType": "uint256",
          "name": "",
          "type": "uint256"
        }
      ],
      "stateMutability": "view",
      "type": "function"
    },
    {
      "inputs": [
        {
          "internalType": "uint256",
          "name": "tokenId",
          "type": "uint256"
        }
      ],
      "name": "getApproved",
      "outputs": [
        {
          "internalType": "address",
          "name": "",
          "type": "address"
        }
      ],
      "stateMutability": "view",
      "type": "function"
    },
    {
      "inputs": [
        {
          "internalType": "bytes32",
          "name": "role",
          "type": "bytes32"
        }
      ],
      "name": "getRoleAdmin",
      "outputs": [
        {
          "internalType": "bytes32",
          "name": "",
          "type": "bytes32"
        }
      ],
      "stateMutability": "view",
      "type": "function"
    },
    {
      "inputs": [
        {
          "internalType": "enum MembershipNFT.Tier",
          "name": "tier",
          "type": "uint8"
        }
      ],
      "name": "getTierPrice",
      "outputs": [
        {
          "internalType": "uint256",
          "name": "",
          "type": "uint256"
        }
      ],
      "stateMutability": "pure",
      "type": "function"
    },
    {
      "inputs": [
        {
          "internalType": "bytes32",
          "name": "role",
          "type": "bytes32"
        },
        {
          "internalType": "address",
          "name": "account",
          "type": "address"
        }
      ],
      "name": "grantRole",
      "outputs": [],
      "stateMutability": "nonpayable",
      "type": "function"
    },
    {
      "inputs": [
        {
          "internalType": "bytes32",
          "name": "role",
          "type": "bytes32"
        },
        {
          "internalType": "address",
          "name": "account",
          "type": "address"
        }
      ],
      "name": "hasRole",
      "outputs": [
        {
          "internalType": "bool",
          "name": "",
          "type": "bool"
        }
      ],
      "stateMutability": "view",
      "type": "function"
    },
    {
      "inputs": [
        {
          "internalType": "address",
          "name": "owner",
          "type": "address"
        },
        {
          "internalType": "address",
          "name": "operator",
          "type": "address"
        }
      ],
      "name": "isApprovedForAll",
      "outputs": [
        {
          "internalType": "bool",
          "name": "",
          "type": "bool"
        }
      ],
      "stateMutability": "view",
      "type": "function"
    },
    {
      "inputs": [
        {
          "internalType": "address",
          "name": "to",
          "type": "address"
        },
        {
          "internalType": "uint8",
          "name": "tier",
          "type": "uint8"
        },
        {
          "internalType": "string",
          "name": "uri",
          "type": "string"
        }
      ],
      "name": "mintMembership",
      "outputs": [],
      "stateMutability": "nonpayable",
      "type": "function"
    },
    {
      "inputs": [],
      "name": "name",
      "outputs": [
        {
          "internalType": "string",
          "name": "",
          "type": "string"
        }
      ],
      "stateMutability": "view",
      "type": "function"
    },
    {
      "inputs": [],
      "name": "owner",
      "outputs": [
        {
          "internalType": "address",
          "name": "",
          "type": "address"
        }
      ],
      "stateMutability": "view",
      "type": "function"
    },
    {
      "inputs": [
        {
          "internalType": "uint256",
          "name": "tokenId",
          "type": "uint256"
        }
      ],
      "name": "ownerOf",
      "outputs": [
        {
          "internalType": "address",
          "name": "",
          "type": "address"
        }
      ],
      "stateMutability": "view",
      "type": "function"
    },
    {
      "inputs": [],
      "name": "renounceOwnership",
      "outputs": [],
      "stateMutability": "nonpayable",
      "type": "function"
    },
    {
      "inputs": [
        {
          "internalType": "bytes32",
          "name": "role",
          "type": "bytes32"
        },
        {
          "internalType": "address",
          "name": "callerConfirmation",
          "type": "address"
        }
      ],
      "name": "renounceRole",
      "outputs": [],
      "stateMutability": "nonpayable",
      "type": "function"
    },
    {
      "inputs": [
        {
          "internalType": "bytes32",
          "name": "role",
          "type": "bytes32"
        },
        {
          "internalType": "address",
          "name": "account",
          "type": "address"
        }
      ],
      "name": "revokeRole",
      "outputs": [],
      "stateMutability": "nonpayable",
      "type": "function"
    },
    {
      "inputs": [
        {
          "internalType": "address",
          "name": "from",
          "type": "address"
        },
        {
          "internalType": "address",
          "name": "to",
          "type": "address"
        },
        {
          "internalType": "uint256",
          "name": "tokenId",
          "type": "uint256"
        }
      ],
      "name": "safeTransferFrom",
      "outputs": [],
      "stateMutability": "nonpayable",
      "type": "function"
    },
    {
      "inputs": [
        {
          "internalType": "address",
          "name": "from",
          "type": "address"
        },
        {
          "internalType": "address",
          "name": "to",
          "type": "address"
        },
        {
          "internalType": "uint256",
          "name": "tokenId",
          "type": "uint256"
        },
        {
          "internalType": "bytes",
          "name": "data",
          "type": "bytes"
        }
      ],
      "name": "safeTransferFrom",
      "outputs": [],
      "stateMutability": "nonpayable",
      "type": "function"
    },
    {
      "inputs": [
        {
          "internalType": "address",
          "name": "operator",
          "type": "address"
        },
        {
          "internalType": "bool",
          "name": "approved",
          "type": "bool"
        }
      ],
      "name": "setApprovalForAll",
      "outputs": [],
      "stateMutability": "nonpayable",
      "type": "function"
    },
    {
      "inputs": [
        {
          "internalType": "bytes4",
          "name": "interfaceId",
          "type": "bytes4"
        }
      ],
      "name": "supportsInterface",
      "outputs": [
        {
          "internalType": "bool",
          "name": "",
          "type": "bool"
        }
      ],
      "stateMutability": "view",
      "type": "function"
    },
    {
      "inputs": [],
      "name": "symbol",
      "outputs": [
        {
          "internalType": "string",
          "name": "",
          "type": "string"
        }
      ],
      "stateMutability": "view",
      "type": "function"
    },
    {
      "inputs": [
        {
          "internalType": "uint256",
          "name": "",
          "type": "uint256"
        }
      ],
      "name": "tokenTier",
      "outputs": [
        {
          "internalType": "enum MembershipNFT.Tier",
          "name": "",
          "type": "uint8"
        }
      ],
      "stateMutability": "view",
      "type": "function"
    },
    {
      "inputs": [
        {
          "internalType": "uint256",
          "name": "tokenId",
          "type": "uint256"
        }
      ],
      "name": "tokenURI",
      "outputs": [
        {
          "internalType": "string",
          "name": "",
          "type": "string"
        }
      ],
      "stateMutability": "view",
      "type": "function"
    },
    {
      "inputs": [
        {
          "internalType": "address",
          "name": "from",
          "type": "address"
        },
        {
          "internalType": "address",
          "name": "to",
          "type": "address"
        },
        {
          "internalType": "uint256",
          "name": "tokenId",
          "type": "uint256"
        }
      ],
      "name": "transferFrom",
      "outputs": [],
      "stateMutability": "nonpayable",
      "type": "function"
    },
    {
      "inputs": [
        {
          "internalType": "address",
          "name": "newOwner",
          "type": "address"
        }
      ],
      "name": "transferOwnership",
      "outputs": [],
      "stateMutability": "nonpayable",
      "type": "function"
    },
    {
      "inputs": [
        {
          "internalType": "uint256",
          "name": "tokenId",
          "type": "uint256"
        },
        {
          "internalType": "uint8",
          "name": "newTier",
          "type": "uint8"
        }
      ],
      "name": "upgradeMembership",
      "outputs": [],
      "stateMutability": "nonpayable",
      "type": "function"
    }
  ],
  "bytecode": "0x60806040523480156200001157600080fd5b50336040518060400160405280601481526020017f4d69652059616d696e204d656d62657273686970000000000000000000000000815250604051806040016040528060038152602001624d594d60e81b8152508160009081620000769190620002ae565b506001620000858282620002ae565b5050506001600160a01b038116620000b757604051631e4fbdf760e01b81526000600482015260240160405180910390fd5b620000c28162000104565b50620000d060003362000156565b50620000fd7f9f2df0fed2c77648de5860a4cc508cd0818c85b8b8a1ab4ceeef8d981c8956a63362000156565b506200037a565b600780546001600160a01b038381166001600160a01b0319831681179093556040519116919082907f8be0079c531659141344cd1fd0a4f28419497f9722a3daafe3b4186f6b6457e090600090a35050565b60008281526008602090815260408083206001600160a01b038516845290915281205460ff16620001ff5760008381526008602090815260408083206001600160a01b03861684529091529020805460ff19166001179055620001b63390565b6001600160a01b0316826001600160a01b0316847f2f8788117e7eff1d82e926ec794901d17c78024a50270940304540a733656f0d60405160405180910390a450600162000203565b5060005b92915050565b634e487b7160e01b600052604160045260246000fd5b600181811c908216806200023457607f821691505b6020821081036200025557634e487b7160e01b600052602260045260246000fd5b50919050565b601f821115620002a957600081815260208120601f850160051c81016020861015620002845750805b601f850160051c820191505b81811015620002a55782815560010162000290565b5050505b505050565b81516001600160401b03811115620002ca57620002ca62000209565b620002e281620002db84546200021f565b846200025b565b602080601f8311600181146200031a5760008415620003015750858301515b600019600386901b1c1916600185901b178555620002a5565b600085815260208120601f198616915b828110156200034b578886015182559484019460019091019084016200032a565b50858210156200036a5787850151600019600388901b60f8161c191681555b5050505050600190811b01905550565b611caa806200038a6000396000f3fe608060405234801561001057600080fd5b50600436106101da5760003560e01c806370a0823111610104578063a217fddf116100a2578063d539139311610071578063d53913931461040d578063d547741f14610434578063e985e9c514610447578063f2fde38b1461045a57600080fd5b8063a217fddf146103cc578063a22cb465146103d4578063b88d4fde146103e7578063c87b56dd146103fa57600080fd5b80638281b3ac116100de5780638281b3ac146103905780638da5cb5b146103a057806391d14854146103b157806395d89b41146103c457600080fd5b806370a0823114610362578063715018a61461037557806375aca2e91461037d57600080fd5b80632f2ff15d1161017c578063570153ed1161014b578063570153ed146102ff5780635dbc6d6c1461030f5780636352211e1461031f578063649e705f1461033257600080fd5b80632f2ff15d146102b357806336568abe146102c657806342842e0e146102d95780635586402d146102ec57600080fd5b8063095ea7b3116101b8578063095ea7b3146102475780631092fead1461025c57806323b872dd1461026f578063248a9ca31461028257600080fd5b806301ffc9a7146101df57806306fdde0314610207578063081812fc1461021c575b600080fd5b6101f26101ed36600461166b565b61046d565b60405190151581526020015b60405180910390f35b61020f61047e565b6040516101fe91906116d8565b61022f61022a3660046116eb565b610510565b6040516001600160a01b0390911681526020016101fe565b61025a610255366004611720565b610539565b005b61025a61026a36600461175b565b610548565b61025a61027d3660046117e9565b61068c565b6102a56102903660046116eb565b60009081526008602052604090206001015490565b6040519081526020016101fe565b61025a6102c1366004611825565b61071c565b61025a6102d4366004611825565b610741565b61025a6102e73660046117e9565b610779565b6102a56102fa366004611851565b610794565b6102a5681b1ae4d6e2ef50000081565b6102a568056bc75e2d6310000081565b61022f61032d3660046116eb565b610847565b6103556103403660046116eb565b600a6020526000908152604090205460ff1681565b6040516101fe91906118aa565b6102a56103703660046118b8565b610852565b61025a61089a565b61025a61038b3660046118d3565b6108ae565b6102a5680d8d726b7177a8000081565b6007546001600160a01b031661022f565b6101f26103bf366004611825565b610a50565b61020f610a7b565b6102a5600081565b61025a6103e23660046118f6565b610a8a565b61025a6103f5366004611948565b610a95565b61020f6104083660046116eb565b610aad565b6102a57f9f2df0fed2c77648de5860a4cc508cd0818c85b8b8a1ab4ceeef8d981c8956a681565b61025a610442366004611825565b610ab8565b6101f2610455366004611a24565b610add565b61025a6104683660046118b8565b610b0b565b600061047882610b49565b92915050565b60606000805461048d90611a4e565b80601f01602080910402602001604051908101604052809291908181526020018280546104b990611a4e565b80156105065780601f106104db57610100808354040283529160200191610506565b820191906000526020600020905b8154815290600101906020018083116104e957829003601f168201915b5050505050905090565b600061051b82610b6e565b506000828152600460205260409020546001600160a01b0316610478565b610544828233610ba7565b5050565b7f9f2df0fed2c77648de5860a4cc508cd0818c85b8b8a1ab4ceeef8d981c8956a661057281610bb4565b60098054908190600061058483611a88565b91905055506105938682610bbe565b8460ff1660028111156105a8576105a8611872565b6000828152600a60205260409020805460ff191660018360028111156105d0576105d0611872565b02179055506106158185858080601f016020809104026020016040519081016040528093929190818152602001838380828437600092019190915250610bd892505050565b80866001600160a01b03167f3ce34c4daa4cc817ecd03b796bfda58751aa15ba8683a597a19d81add1969cfb8760ff16600281111561065657610656611872565b61066e8960ff1660028111156102fa576102fa611872565b60405161067c929190611aaf565b60405180910390a3505050505050565b6001600160a01b0382166106bb57604051633250574960e11b8152600060048201526024015b60405180910390fd5b60006106c8838333610c28565b9050836001600160a01b0316816001600160a01b031614610716576040516364283d7b60e01b81526001600160a01b03808616600483015260248201849052821660448201526064016106b2565b50505050565b60008281526008602052604090206001015461073781610bb4565b6107168383610d23565b6001600160a01b038116331461076a5760405163334bd91960e11b815260040160405180910390fd5b6107748282610db7565b505050565b61077483838360405180602001604052806000815250610a95565b6000808260028111156107a9576107a9611872565b036107be575068056bc75e2d63100000919050565b60018260028111156107d2576107d2611872565b036107e75750680d8d726b7177a80000919050565b60028260028111156107fb576107fb611872565b036108105750681b1ae4d6e2ef500000919050565b60405162461bcd60e51b815260206004820152600c60248201526b24b73b30b634b2103a34b2b960a11b60448201526064016106b2565b600061047882610b6e565b60006001600160a01b03821661087e576040516322718ad960e21b8152600060048201526024016106b2565b506001600160a01b031660009081526003602052604090205490565b6108a2610e24565b6108ac6000610e51565b565b7f9f2df0fed2c77648de5860a4cc508cd0818c85b8b8a1ab4ceeef8d981c8956a66108d881610bb4565b60006108e384610847565b6001600160a01b0316036109305760405162461bcd60e51b8152602060048201526014602482015273151bdad95b88191bd95cc81b9bdd08195e1a5cdd60621b60448201526064016106b2565b6000838152600a602052604090205460ff1680600281111561095457610954611872565b60ff168360ff16116109a85760405162461bcd60e51b815260206004820152601760248201527f4e65772074696572206d7573742062652068696768657200000000000000000060448201526064016106b2565b8260ff1660028111156109bd576109bd611872565b6000858152600a60205260409020805460ff191660018360028111156109e5576109e5611872565b0217905550836109f485610847565b6001600160a01b03167f2d3a0d643826fdc9f11a0ff0e3140800ce61aaba0525fa0fa59af6d445a2fc89838660ff166002811115610a3457610a34611872565b604051610a42929190611aca565b60405180910390a350505050565b60009182526008602090815260408084206001600160a01b0393909316845291905290205460ff1690565b60606001805461048d90611a4e565b610544338383610ea3565b610aa084848461068c565b6107163385858585610f42565b60606104788261106d565b600082815260086020526040902060010154610ad381610bb4565b6107168383610db7565b6001600160a01b03918216600090815260056020908152604080832093909416825291909152205460ff1690565b610b13610e24565b6001600160a01b038116610b3d57604051631e4fbdf760e01b8152600060048201526024016106b2565b610b4681610e51565b50565b60006001600160e01b03198216637965db0b60e01b148061047857506104788261117e565b6000818152600260205260408120546001600160a01b03168061047857604051637e27328960e01b8152600481018490526024016106b2565b61077483838360016111a3565b610b4681336112a9565b6105448282604051806020016040528060008152506112e2565b6000828152600660205260409020610bf08282611b2b565b506040518281527ff8e1a15aba9398e019f0b49df1a4fde98ee17ae345cb5f6b5e2c27f5033e8ce79060200160405180910390a15050565b6000828152600260205260408120546001600160a01b0390811690831615610c5557610c558184866112fa565b6001600160a01b03811615610c9357610c726000856000806111a3565b6001600160a01b038116600090815260036020526040902080546000190190555b6001600160a01b03851615610cc2576001600160a01b0385166000908152600360205260409020805460010190555b60008481526002602052604080822080546001600160a01b0319166001600160a01b0389811691821790925591518793918516917fddf252ad1be2c89b69c2b068fc378daa952ba7f163c4a11628f55a4df523b3ef91a490505b9392505050565b6000610d2f8383610a50565b610daf5760008381526008602090815260408083206001600160a01b03861684529091529020805460ff19166001179055610d673390565b6001600160a01b0316826001600160a01b0316847f2f8788117e7eff1d82e926ec794901d17c78024a50270940304540a733656f0d60405160405180910390a4506001610478565b506000610478565b6000610dc38383610a50565b15610daf5760008381526008602090815260408083206001600160a01b0386168085529252808320805460ff1916905551339286917ff6391f5c32d9c69d2a47ea670b442974b53935d1edc7fd64eb21e047a839171b9190a4506001610478565b6007546001600160a01b031633146108ac5760405163118cdaa760e01b81523360048201526024016106b2565b600780546001600160a01b038381166001600160a01b0319831681179093556040519116919082907f8be0079c531659141344cd1fd0a4f28419497f9722a3daafe3b4186f6b6457e090600090a35050565b6001600160a01b038216610ed557604051630b61174360e31b81526001600160a01b03831660048201526024016106b2565b6001600160a01b03838116600081815260056020908152604080832094871680845294825291829020805460ff191686151590811790915591519182527f17307eab39ab6107e8899845ad3d59bd9653f200f220920489ca2b5937696c31910160405180910390a3505050565b6001600160a01b0383163b1561106657604051630a85bd0160e11b81526001600160a01b0384169063150b7a0290610f84908890889087908790600401611beb565b6020604051808303816000875af1925050508015610fbf575060408051601f3d908101601f19168201909252610fbc91810190611c28565b60015b611028573d808015610fed576040519150601f19603f3d011682016040523d82523d6000602084013e610ff2565b606091505b50805160000361102057604051633250574960e11b81526001600160a01b03851660048201526024016106b2565b805160208201fd5b6001600160e01b03198116630a85bd0160e11b1461106457604051633250574960e11b81526001600160a01b03851660048201526024016106b2565b505b5050505050565b606061107882610b6e565b506000828152600660205260408120805461109290611a4e565b80601f01602080910402602001604051908101604052809291908181526020018280546110be90611a4e565b801561110b5780601f106110e05761010080835404028352916020019161110b565b820191906000526020600020905b8154815290600101906020018083116110ee57829003601f168201915b50505050509050600061112960408051602081019091526000815290565b9050805160000361113b575092915050565b81511561116d578082604051602001611155929190611c45565b60405160208183030381529060405292505050919050565b6111768461135e565b949350505050565b60006001600160e01b03198216632483248360e11b14806104785750610478826113d2565b80806111b757506001600160a01b03821615155b156112795760006111c784610b6e565b90506001600160a01b038316158015906111f35750826001600160a01b0316816001600160a01b031614155b801561120657506112048184610add565b155b1561122f5760405163a9fbf51f60e01b81526001600160a01b03841660048201526024016106b2565b81156112775783856001600160a01b0316826001600160a01b03167f8c5be1e5ebec7d5bd14f71427d1e84f3dd0314c0f7b2291e5b200ac8c7c3b92560405160405180910390a45b505b5050600090815260046020526040902080546001600160a01b0319166001600160a01b0392909216919091179055565b6112b38282610a50565b6105445760405163e2517d3f60e01b81526001600160a01b0382166004820152602481018390526044016106b2565b6112ec8383611422565b610774336000858585610f42565b611305838383611487565b610774576001600160a01b03831661133357604051637e27328960e01b8152600481018290526024016106b2565b60405163177e802f60e01b81526001600160a01b0383166004820152602481018290526044016106b2565b606061136982610b6e565b50600061138160408051602081019091526000815290565b905060008151116113a15760405180602001604052806000815250610d1c565b806113ab846114ea565b6040516020016113bc929190611c45565b6040516020818303038152906040529392505050565b60006001600160e01b031982166380ac58cd60e01b148061140357506001600160e01b03198216635b5e139f60e01b145b8061047857506301ffc9a760e01b6001600160e01b0319831614610478565b6001600160a01b03821661144c57604051633250574960e11b8152600060048201526024016106b2565b600061145a83836000610c28565b90506001600160a01b03811615610774576040516339e3563760e11b8152600060048201526024016106b2565b60006001600160a01b038316158015906111765750826001600160a01b0316846001600160a01b031614806114c157506114c18484610add565b806111765750506000908152600460205260409020546001600160a01b03908116911614919050565b606060006114f78361157d565b600101905060008167ffffffffffffffff81111561151757611517611932565b6040519080825280601f01601f191660200182016040528015611541576020820181803683370190505b5090508181016020015b600019016f181899199a1a9b1b9c1cb0b131b232b360811b600a86061a8153600a850494508461154b57509392505050565b60008072184f03e93ff9f4daa797ed6e38ed64bf6a1f0160401b83106115bc5772184f03e93ff9f4daa797ed6e38ed64bf6a1f0160401b830492506040015b6d04ee2d6d415b85acef810000000083106115e8576d04ee2d6d415b85acef8100000000830492506020015b662386f26fc10000831061160657662386f26fc10000830492506010015b6305f5e100831061161e576305f5e100830492506008015b612710831061163257612710830492506004015b60648310611644576064830492506002015b600a83106104785760010192915050565b6001600160e01b031981168114610b4657600080fd5b60006020828403121561167d57600080fd5b8135610d1c81611655565b60005b838110156116a357818101518382015260200161168b565b50506000910152565b600081518084526116c4816020860160208601611688565b601f01601f19169290920160200192915050565b602081526000610d1c60208301846116ac565b6000602082840312156116fd57600080fd5b5035919050565b80356001600160a01b038116811461171b57600080fd5b919050565b6000806040838503121561173357600080fd5b61173c83611704565b946020939093013593505050565b803560ff8116811461171b57600080fd5b6000806000806060858703121561177157600080fd5b61177a85611704565b93506117886020860161174a565b9250604085013567ffffffffffffffff808211156117a557600080fd5b818701915087601f8301126117b957600080fd5b8135818111156117c857600080fd5b8860208285010111156117da57600080fd5b95989497505060200194505050565b6000806000606084860312156117fe57600080fd5b61180784611704565b925061181560208501611704565b9150604084013590509250925092565b6000806040838503121561183857600080fd5b8235915061184860208401611704565b90509250929050565b60006020828403121561186357600080fd5b813560038110610d1c57600080fd5b634e487b7160e01b600052602160045260246000fd5b600381106118a657634e487b7160e01b600052602160045260246000fd5b9052565b602081016104788284611888565b6000602082840312156118ca57600080fd5b610d1c82611704565b600080604083850312156118e657600080fd5b823591506118486020840161174a565b6000806040838503121561190957600080fd5b61191283611704565b91506020830135801515811461192757600080fd5b809150509250929050565b634e487b7160e01b600052604160045260246000fd5b6000806000806080858703121561195e57600080fd5b61196785611704565b935061197560208601611704565b925060408501359150606085013567ffffffffffffffff8082111561199957600080fd5b818701915087601f8301126119ad57600080fd5b8135818111156119bf576119bf611932565b604051601f8201601f19908116603f011681019083821181831017156119e7576119e7611932565b816040528281528a6020848701011115611a0057600080fd5b82602086016020830137600060208483010152809550505050505092959194509250565b60008060408385031215611a3757600080fd5b611a4083611704565b915061184860208401611704565b600181811c90821680611a6257607f821691505b602082108103611a8257634e487b7160e01b600052602260045260246000fd5b50919050565b600060018201611aa857634e487b7160e01b600052601160045260246000fd5b5060010190565b60408101611abd8285611888565b8260208301529392505050565b60408101611ad88285611888565b610d1c6020830184611888565b601f82111561077457600081815260208120601f850160051c81016020861015611b0c5750805b601f850160051c820191505b8181101561106457828155600101611b18565b815167ffffffffffffffff811115611b4557611b45611932565b611b5981611b538454611a4e565b84611ae5565b602080601f831160018114611b8e5760008415611b765750858301515b600019600386901b1c1916600185901b178555611064565b600085815260208120601f198616915b82811015611bbd57888601518255948401946001909101908401611b9e565b5085821015611bdb5787850151600019600388901b60f8161c191681555b5050505050600190811b01905550565b6001600160a01b0385811682528416602082015260408101839052608060608201819052600090611c1e908301846116ac565b9695505050505050565b600060208284031215611c3a57600080fd5b8151610d1c81611655565b60008351611c57818460208801611688565b835190830190611c6b818360208801611688565b0194935050505056fea26469706673582212200013460fc50ec531d24f99b47bc18a9fa7a1fdd85d422ee9f0566f8eabd4f42d64736f6c63430008140033",
  "linkReferences": {},
  "deployedLinkReferences": {}
}